{
    "contractName": "HelloWorld",
    "abi": [
        {
            "inputs": [],
            "name": "getA",
            "outputs": [
                {
                    "internalType": "uint256",
                    "name": "",
                    "type": "uint256"
                }
            ],
            "stateMutability": "view",
            "type": "function"
        },
        {
            "inputs": [],
            "name": "getB",
            "outputs": [
                {
                    "internalType": "uint256",
                    "name": "",
                    "type": "uint256"
                }
            ],
            "stateMutability": "view",
            "type": "function"
        },
        {
            "inputs": [],
            "name": "getC",
            "outputs": [
                {
                    "internalType": "uint256",
                    "name": "",
                    "type": "uint256"
                }
            ],
            "stateMutability": "view",
            "type": "function"
        },
        {
            "inputs": [],
            "name": "getD",
            "outputs": [
                {
                    "internalType": "uint256",
                    "name": "",
                    "type": "uint256"
                }
            ],
            "stateMutability": "view",
            "type": "function"
        },
        {
            "inputs": [
                {
                    "internalType": "uint256",
                    "name": "_a",
                    "type": "uint256"
                }
            ],
            "name": "setA",
            "outputs": [],
            "stateMutability": "nonpayable",
            "type": "function"
        },
        {
            "inputs": [
                {
                    "internalType": "uint256",
                    "name": "_b",
                    "type": "uint256"
                }
            ],
            "name": "setB",
            "outputs": [],
            "stateMutability": "nonpayable",
            "type": "function"
        },
        {
            "inputs": [
                {
                    "internalType": "uint256",
                    "name": "_c",
                    "type": "uint256"
                }
            ],
            "name": "setC",
            "outputs": [],
            "stateMutability": "nonpayable",
            "type": "function"
        },
        {
            "inputs": [
                {
                    "internalType": "uint256",
                    "name": "_d",
                    "type": "uint256"
                }
            ],
            "name": "setD",
            "outputs": [],
            "stateMutability": "nonpayable",
            "type": "function"
        }
    ],
    "bytecode": "608060405234801561001057600080fd5b50610158806100206000396000f3fe608060405234801561001057600080fd5b50600436106100885760003560e01c8063a2375d1e1161005b578063a2375d1e146100d3578063d46300fd146100db578063ee919d50146100e3578063eeb4914e146100f657600080fd5b806309cdcf9b1461008d5780630b2eeb49146100a25780631a14ff7a146100b5578063a1c51915146100cb575b600080fd5b6100a061009b366004610109565b600155565b005b6100a06100b0366004610109565b600355565b6003545b60405190815260200160405180910390f35b6001546100b9565b6002546100b9565b6000546100b9565b6100a06100f1366004610109565b600055565b6100a0610104366004610109565b600255565b60006020828403121561011b57600080fd5b503591905056fea2646970667358221220d148ded116e45fc5bdb8a5b0a7984794e72e29ee158f464504e1431a0dd20a3264736f6c63430008130033",
    "sourcePath": "c:/Users/aktar/Documents/Solidity/setget.sol",
    "compiler": {
        "name": "solc",
        "version": "0.8.19+commit.7dd6d404"
    },
    "functionHashes": {
        "getA()": "d46300fd",
        "getB()": "a1c51915",
        "getC()": "a2375d1e",
        "getD()": "1a14ff7a",
        "setA(uint256)": "ee919d50",
        "setB(uint256)": "09cdcf9b",
        "setC(uint256)": "eeb4914e",
        "setD(uint256)": "0b2eeb49"
    },
    "gasEstimates": {
        "creation": {
            "codeDepositCost": "68800",
            "executionCost": "117",
            "totalCost": "68917"
        },
        "external": {
            "getA()": "2302",
            "getB()": "2347",
            "getC()": "2280",
            "getD()": "2314",
            "setA(uint256)": "22356",
            "setB(uint256)": "22313",
            "setC(uint256)": "22378",
            "setD(uint256)": "22335"
        }
    }
}